:100000000C9434000C9451000C9451000C94510049
:100010000C9451000C9451000C9451000C9451001C
:100020000C9451000C9451000C9451000C947A00E3
:100030000C9451000C9451000C9451000C945100FC
:100040000C9451000C9451000C9451000C945100EC
:100050000C9451000C9451000C9451000C945100DC
:100060000C9451000C94510011241FBECFEFD4E02A
:10007000DEBFCDBF11E0A0E0B1E0E2E4FDE002C0F0
:1000800005900D92A63DB107D9F711E0A6EDB1E0BC
:1000900001C01D92A93DB107E1F70E948E020C94A8
:1000A0009F060C9400008AB108955D9808955D9AAA
:1000B00008958AB108955E9808955E9A0895109201
:1000C00080008CE08093810087E490E09093890029
:1000D0008093880082E080936F0008959093D70109
:1000E0008093D60181E08093D8018091D801882344
:1000F000E1F708951F920F920FB60F9211248F937C
:100100009F938091D801882391F08091D60190919E
:10011000D701009751F08091D6019091D7010197B6
:100120009093D7018093D60102C01092D80180919C
:10013000000190910101009749F080910001909198
:100140000101019790930101809300019F918F918C
:100150000F900FBE0F901F90189583E190E0909341
:10016000C5008093C40088E18093C10086E080933D
:10017000C20008959091C00095FFFCCF8093C60007
:1001800008958091C00087FFFCCF8091C60008953C
:100190001F930E94C100182F0E94C100512F40E000
:1001A000282F30E0242B352BC9011F9108951F9370
:1001B000182F89E80E94BA0080E00E94BA00812FBF
:1001C0000E94BA0080E80E94BA0080E00E94BA0053
:1001D0001F91089589E80E94BA0080E00E94BA0049
:1001E00080E00E94BA0080E00E94BA0080E00E9495
:1001F000BA0008951F93182F89E80E94BA0080E082
:100200000E94BA00812F0E94BA008FEF0E94BA00AC
:100210008FEF0E94BA001F9108951F93182F89E84D
:100220000E94BA0080E00E94BA00812F0E94BA00AA
:1002300080E00E94BA0081E00E94BA001F910895F8
:100240001F93182F8BE90E94BA00812F0E94BA00D9
:100250001F9108951F93182F8EE90E94BA00812FD5
:100260000E94BA001F910895CF93DF93EB010E9483
:10027000D700CE010E946E00DF91CF910895CF93F9
:10028000DF93EB010E940D01CE010E946E00DF9111
:10029000CF910895CF93DF93EB010E94FA00CE0136
:1002A0000E946E00DF91CF9108951F93182F8AE06E
:1002B00090E00E946E00113011F42C9801C02C9A2D
:1002C0008AE090E00E946E001F9108958EE80E94DF
:1002D000BA0087E00E94BA000E94C10080FD07C0FA
:1002E00021E030E081FD05C020E030E002C021E0E7
:1002F00030E0C9010895FF920F931F938EE80E948A
:10030000BA0089E00E94BA000E94C100082F8EE85E
:100310000E94BA008AE00E94BA000E94C100F82E32
:100320008EE80E94BA008BE00E94BA000E94C100D1
:10033000182F8EE80E94BA008CE00E94BA000E943A
:10034000C1000F29012B802B90E01F910F91FF908E
:1003500008958EE80E94BA0087E00E94BA000E94C9
:10036000C10090E09C012C7030702115310539F4EA
:1003700021E030E084FD05C020E030E002C021E053
:1003800030E0C90108958EE80E94BA0081E10E9420
:10039000BA000E94C10090E00895EF92FF92CF93BF
:1003A000DF93E82EE7017E01F92EE70102C00E94EB
:1003B000BA0089918823D9F78AE00E94BA00DF91B8
:1003C000CF91FF90EF90089585E90E94BA0086E0F2
:1003D0000E94BA0089E10E94BA008BE10E94BA0033
:1003E0008CE10E94BA008DE10E94BA008EE10E9469
:1003F000BA008FE10E94BA0008956F927F928F92A7
:100400009F92AF92BF92CF92DF92EF92FF920F93A3
:100410001F93CF93DF933C014B015A016901E8011F
:100420000E94C800F301918380830E94C800F401F8
:10043000918380830E94C800F501918380830E948C
:10044000C800F601918380830E94C8009983888345
:100450000E94C800F70191838083DF91CF911F91A3
:100460000F91FF90EF90DF90CF90BF90AF909F9053
:100470008F907F906F9008958BE80E94BA0080E083
:100480000E94BA008FEF0E94BA008FEF0E94BA005C
:100490000895F8948AB18AB10E94AD000E945F006D
:1004A000789480E80E94BA0084E80E94BA000E9412
:1004B0003C0208958BE80E94BA0080E00E94BA00D6
:1004C00088E20E94BA008FEF0E94BA0008950E944D
:1004D000A9018130910529F40E945A0220E030E000
:1004E00004C00E943C0221E030E0C90108950E944E
:1004F0006601009769F40E94A901009749F40E94DF
:100500007B01009729F40E943C0221E030E004C006
:100510000E945A0220E030E0C90108952F923F92D4
:100520004F925F926F927F928F929F92AF92BF9203
:10053000CF92DF92EF92FF920F931F93DF93CF93AF
:10054000CDB7DEB7C057D0400FB6F894DEBF0FBEB0
:10055000CDBF0E94490203E0602E712C6C0E7D1EFF
:1005600015E0412E512C4C0E5D1EB7E02B2E312C88
:100570002C0E3D1EA9E0AA2EB12CAC0EBD1E4E01C4
:100580000894811C911CFDE0CF2ED12CCC0EDD1ED9
:1005900080910001909101010097D1F781E00E94C4
:1005A00055010E94E401C401B301A201910185013A
:1005B000EBE0EE2EF12CEC0EFD1E0E94FD0182E020
:1005C0000E94550100D000D000D0EDB7FEB73196A3
:1005D000ADB7BEB71296DC92CE92119782E091E051
:1005E0009383828389819A81958384830E94BE0349
:1005F000ADB7BEB716960FB6F894BEBF0FBEADBF6F
:10060000C6010E94CD0100D000D000D0EDB7FEB7EA
:100610003196ADB7BEB71296DC92CE92119781E2B9
:1006200091E0938382838B819C81958384830E9454
:10063000BE03ADB7BEB716960FB6F894BEBF0FBED9
:10064000ADBFC6010E94CD0100D000D000D0EDB7F3
:10065000FEB73196ADB7BEB71296DC92CE92119727
:100660008DE391E0938382838D819E819583848342
:100670000E94BE03ADB7BEB716960FB6F894BEBFC4
:100680000FBEADBFC6010E94CD0100D000D000D08A
:10069000EDB7FEB73196ADB7BEB71296DC92CE92EB
:1006A00011978FE591E0938382838F81988595835D
:1006B00084830E94BE03ADB7BEB716960FB6F894FA
:1006C000BEBF0FBEADBFC6010E94CD0100D000D09D
:1006D00000D0EDB7FEB73196ADB7BEB71296DC923B
:1006E000CE92119787E891E09383828389859A85DA
:1006F000958384830E94BE03ADB7BEB716960FB62E
:10070000F894BEBF0FBEADBFC6010E94CD0100D0A0
:1007100000D000D0EDB7FEB73196ADB7BEB7129698
:10072000DC92CE92119780EB91E0938382838B854C
:100730009C85958384830E94BE03ADB7BEB7169691
:100740000FB6F894BEBF0FBEADBFC6010E94CD016B
:10075000C60163ED71E00E94B703C6010E94CD019E
:1007600088EE93E0909301018093000111CFFB018B
:10077000DC0101900D920020E1F70895AEE0B0E0B9
:10078000E4ECF3E00C9476060D891E8986E08C83F8
:100790001A8309838FEF9FE79E838D839E01275ED7
:1007A0003F4FCE0101966F89788DA9010E94E10328
:1007B000EF81F885E00FF11F10822E96E4E00C9493
:1007C0009206ACE0B0E0E7EEF3E00C9468066C0152
:1007D0001B018A01FC0117821682838181FFD1C12E
:1007E0002E010894411C511CF6019381F10193FDE7
:1007F000859193FF81911F01882309F4BEC1853241
:1008000039F493FD859193FF81911F01853229F47D
:1008100090E0B6010E94DE05E7CFEE24FF2420E041
:100820002032B0F48B3269F08C3228F4803251F0EF
:10083000833271F40BC08D3239F0803349F421607A
:100840002CC02260246029C0286027C0206125C0F8
:1008500027FD2CC0382F30533A3098F426FF08C0BB
:100860008E2D880FE82EEE0CEE0CE80EE30E15C070
:100870008F2D880FF82EFF0CFF0CF80EF30E206260
:100880000CC08E3221F426FD78C1206406C08C365F
:1008900011F4206802C0883649F4F10193FD859176
:1008A00093FF81911F01882309F0BACF982F9554A7
:1008B000933018F09052933028F40C5F1F4FFFE3F1
:1008C000F9830DC0833631F0833771F0833509F039
:1008D00060C022C0F801808189830E5F1F4F4201F2
:1008E00071E0A72EB12C16C062E0662E712C600E4E
:1008F000711EF8018080918026FF03C06E2D70E08C
:1009000002C06FEF7FEFC4012C870E94D3055C010A
:1009100083012C852F7717C052E0652E712C600E55
:10092000711EF8018080918026FF03C06E2D70E05B
:1009300002C06FEF7FEFC4012C870E94C8055C01E5
:100940002C852068830123FD20C008C080E290E050
:10095000B6012C870E94DE05FA942C858F2D90E03D
:10096000A816B90698F311C0F40127FD859127FF59
:1009700081914F0190E0B6012C870E94DE052C8505
:10098000F110FA940894A108B108A114B10461F718
:10099000F1C0843611F0893649F527FF08C0F80107
:1009A00060817181828193810C5F1F4F09C0F801C2
:1009B00060817181882777FD8095982F0E5F1F4F8A
:1009C0004FE6B42EB22297FF09C09095809570959E
:1009D00061957F4F8F4F9F4FF0E8BF2AA2012AE019
:1009E00030E00E940A06782E741845C0853731F42D
:1009F0003FEEB32EB2222AE030E025C099EFB92EA7
:100A0000B2228F36C1F0803720F4883509F0B5C0A6
:100A10000DC0803721F0883709F0AFC002C020E157
:100A2000B22AB4FE0BC084E0B82A08C0B4FE09C0E4
:100A3000E6E0BE2A06C028E030E005C020E130E054
:100A400002C020E132E0B7FE08C0F8016081718188
:100A5000828193810C5F1F4F07C0F8016081718113
:100A600080E090E00E5F1F4FA2010E940A06782EE0
:100A70007418FFE7BF22B6FE0BC02EEFB2227E1421
:100A800038F4B4FE07C0B2FC05C08FEEB82202C035
:100A9000A72C01C0AE2C8B2D90E0B4FE0DC0FE0142
:100AA000E70DF11D2081203319F4E9EEBE2209C0C3
:100AB000A394B2FE06C004C086789070009709F037
:100AC000A3948B2C9924B3FC14C0B0FE0FC0AF14B8
:100AD00028F4E72CEF0CEA18AF2C08C0E72C06C06E
:100AE00080E290E0B6010E94DE05A394AF14C0F34B
:100AF00004C0AF1410F4FA1801C0FF2484FE0FC024
:100B000080E390E0B6010E94DE0582FE1FC081FEF8
:100B100003C088E590E010C088E790E00DC0C401F4
:100B200086789070009791F081FC02C080E201C04D
:100B30008BE2B7FC8DE290E0B6010E94DE0506C0B4
:100B400080E390E0B6010E94DE05EA947E14C0F3D3
:100B50007A94F201E70DF11D808190E0B6010E94C8
:100B6000DE057720A9F706C080E290E0B6010E947A
:100B7000DE05FA94FF20C1F737CEF60126813781D2
:100B800002C02FEF3FEFC9012C96E2E10C948406DE
:100B9000FC010590615070400110D8F78095909548
:100BA0008E0F9F1F0895FC0161507040019001104D
:100BB000D8F7809590958E0F9F1F08950F931F93E0
:100BC000CF93DF938C01EB018B8181FF1BC082FFF0
:100BD0000DC02E813F818C819D812817390764F4D7
:100BE000E881F9810193F983E88306C0E885F985F6
:100BF000802F0995009731F48E819F8101969F8304
:100C00008E8302C00FEF1FEFC801DF91CF911F91BC
:100C10000F910895FA01AA27283051F1203181F16E
:100C2000E8946F936E7F6E5F7F4F8F4F9F4FAF4FF4
:100C3000B1E03ED0B4E03CD0670F781F891F9A1F07
:100C4000A11D680F791F8A1F911DA11D6A0F711DBB
:100C5000811D911DA11D20D009F468943F912AE0C7
:100C6000269F11243019305D3193DEF6CF010895AF
:100C7000462F4770405D4193B3E00FD0C9F7F6CFE0
:100C8000462F4F70405D4A3318F0495D31FD4052A8
:100C9000419302D0A9F7EACFB4E0A695979587953E
:100CA00077956795BA95C9F700976105710508951D
:100CB0009B01AC010A2E06945795479537952795C9
:100CC000BA95C9F7620F731F841F951FA01D089561
:100CD0002F923F924F925F926F927F928F929F924C
:100CE000AF92BF92CF92DF92EF92FF920F931F933A
:100CF000CF93DF93CDB7DEB7CA1BDB0B0FB6F894EB
:100D0000DEBF0FBECDBF09942A88398848885F842A
:100D10006E847D848C849B84AA84B984C884DF809B
:100D2000EE80FD800C811B81AA81B981CE0FD11D7F
:100D30000FB6F894DEBF0FBECDBFED010895F89455
:020D4000FFCFE3
:100D4200E8035468697320697320746865206261DE
:100D52007474657279206368617267653A202575DB
:100D62000054686973206973207468652077616C28
:100D72006C2073656E736F723A2025750054686932
:100D82007320697320746865206C65667420636CD7
:100D92006966662073656E736F723A20257500541A
:100DA200686973206973207468652066726F6E7457
:100DB200206C65667420636C6966662073656E7369
:100DC2006F723A2025750054686973206973207424
:100DD20068652066726F6E7420726967687420633A
:100DE2006C6966662073656E736F723A20257500B2
:100DF2005468697320697320746865207269676832
:100E02007420636C6966662073656E736F723A2034
:060E12002575000A000036
:00000001FF
